{
  "_format": "hh-sol-artifact-1",
  "contractName": "AIModelOwnership",
  "sourceName": "contracts/AIModelOwnership.sol",
  "abi": [
    {
      "inputs": [],
      "stateMutability": "nonpayable",
      "type": "constructor"
    },
    {
      "anonymous": false,
      "inputs": [
        {
          "indexed": true,
          "internalType": "address",
          "name": "owner",
          "type": "address"
        },
        {
          "indexed": true,
          "internalType": "address",
          "name": "approved",
          "type": "address"
        },
        {
          "indexed": true,
          "internalType": "uint256",
          "name": "tokenId",
          "type": "uint256"
        }
      ],
      "name": "Approval",
      "type": "event"
    },
    {
      "anonymous": false,
      "inputs": [
        {
          "indexed": true,
          "internalType": "address",
          "name": "owner",
          "type": "address"
        },
        {
          "indexed": true,
          "internalType": "address",
          "name": "operator",
          "type": "address"
        },
        {
          "indexed": false,
          "internalType": "bool",
          "name": "approved",
          "type": "bool"
        }
      ],
      "name": "ApprovalForAll",
      "type": "event"
    },
    {
      "anonymous": false,
      "inputs": [
        {
          "indexed": true,
          "internalType": "address",
          "name": "from",
          "type": "address"
        },
        {
          "indexed": true,
          "internalType": "address",
          "name": "to",
          "type": "address"
        },
        {
          "indexed": true,
          "internalType": "uint256",
          "name": "tokenId",
          "type": "uint256"
        }
      ],
      "name": "Transfer",
      "type": "event"
    },
    {
      "inputs": [
        {
          "internalType": "address",
          "name": "to",
          "type": "address"
        },
        {
          "internalType": "uint256",
          "name": "tokenId",
          "type": "uint256"
        }
      ],
      "name": "approve",
      "outputs": [],
      "stateMutability": "nonpayable",
      "type": "function"
    },
    {
      "inputs": [
        {
          "internalType": "address",
          "name": "owner",
          "type": "address"
        }
      ],
      "name": "balanceOf",
      "outputs": [
        {
          "internalType": "uint256",
          "name": "",
          "type": "uint256"
        }
      ],
      "stateMutability": "view",
      "type": "function"
    },
    {
      "inputs": [
        {
          "internalType": "uint256",
          "name": "tokenId",
          "type": "uint256"
        }
      ],
      "name": "getApproved",
      "outputs": [
        {
          "internalType": "address",
          "name": "",
          "type": "address"
        }
      ],
      "stateMutability": "view",
      "type": "function"
    },
    {
      "inputs": [
        {
          "internalType": "address",
          "name": "owner",
          "type": "address"
        },
        {
          "internalType": "address",
          "name": "operator",
          "type": "address"
        }
      ],
      "name": "isApprovedForAll",
      "outputs": [
        {
          "internalType": "bool",
          "name": "",
          "type": "bool"
        }
      ],
      "stateMutability": "view",
      "type": "function"
    },
    {
      "inputs": [
        {
          "internalType": "address",
          "name": "recipient",
          "type": "address"
        },
        {
          "internalType": "string",
          "name": "modelURI",
          "type": "string"
        },
        {
          "internalType": "string",
          "name": "category",
          "type": "string"
        }
      ],
      "name": "mintModel",
      "outputs": [
        {
          "internalType": "uint256",
          "name": "",
          "type": "uint256"
        }
      ],
      "stateMutability": "nonpayable",
      "type": "function"
    },
    {
      "inputs": [
        {
          "internalType": "uint256",
          "name": "index",
          "type": "uint256"
        }
      ],
      "name": "modelByIndex",
      "outputs": [
        {
          "internalType": "uint256",
          "name": "",
          "type": "uint256"
        }
      ],
      "stateMutability": "view",
      "type": "function"
    },
    {
      "inputs": [
        {
          "internalType": "uint256",
          "name": "modelId",
          "type": "uint256"
        }
      ],
      "name": "modelCategory",
      "outputs": [
        {
          "internalType": "string",
          "name": "",
          "type": "string"
        }
      ],
      "stateMutability": "view",
      "type": "function"
    },
    {
      "inputs": [
        {
          "internalType": "uint256",
          "name": "modelId",
          "type": "uint256"
        }
      ],
      "name": "modelURI",
      "outputs": [
        {
          "internalType": "string",
          "name": "",
          "type": "string"
        }
      ],
      "stateMutability": "view",
      "type": "function"
    },
    {
      "inputs": [],
      "name": "name",
      "outputs": [
        {
          "internalType": "string",
          "name": "",
          "type": "string"
        }
      ],
      "stateMutability": "view",
      "type": "function"
    },
    {
      "inputs": [
        {
          "internalType": "uint256",
          "name": "tokenId",
          "type": "uint256"
        }
      ],
      "name": "ownerOf",
      "outputs": [
        {
          "internalType": "address",
          "name": "",
          "type": "address"
        }
      ],
      "stateMutability": "view",
      "type": "function"
    },
    {
      "inputs": [
        {
          "internalType": "address",
          "name": "from",
          "type": "address"
        },
        {
          "internalType": "address",
          "name": "to",
          "type": "address"
        },
        {
          "internalType": "uint256",
          "name": "tokenId",
          "type": "uint256"
        }
      ],
      "name": "safeTransferFrom",
      "outputs": [],
      "stateMutability": "nonpayable",
      "type": "function"
    },
    {
      "inputs": [
        {
          "internalType": "address",
          "name": "from",
          "type": "address"
        },
        {
          "internalType": "address",
          "name": "to",
          "type": "address"
        },
        {
          "internalType": "uint256",
          "name": "tokenId",
          "type": "uint256"
        },
        {
          "internalType": "bytes",
          "name": "data",
          "type": "bytes"
        }
      ],
      "name": "safeTransferFrom",
      "outputs": [],
      "stateMutability": "nonpayable",
      "type": "function"
    },
    {
      "inputs": [
        {
          "internalType": "address",
          "name": "operator",
          "type": "address"
        },
        {
          "internalType": "bool",
          "name": "approved",
          "type": "bool"
        }
      ],
      "name": "setApprovalForAll",
      "outputs": [],
      "stateMutability": "nonpayable",
      "type": "function"
    },
    {
      "inputs": [
        {
          "internalType": "bytes4",
          "name": "interfaceId",
          "type": "bytes4"
        }
      ],
      "name": "supportsInterface",
      "outputs": [
        {
          "internalType": "bool",
          "name": "",
          "type": "bool"
        }
      ],
      "stateMutability": "view",
      "type": "function"
    },
    {
      "inputs": [],
      "name": "symbol",
      "outputs": [
        {
          "internalType": "string",
          "name": "",
          "type": "string"
        }
      ],
      "stateMutability": "view",
      "type": "function"
    },
    {
      "inputs": [
        {
          "internalType": "uint256",
          "name": "tokenId",
          "type": "uint256"
        }
      ],
      "name": "tokenURI",
      "outputs": [
        {
          "internalType": "string",
          "name": "",
          "type": "string"
        }
      ],
      "stateMutability": "view",
      "type": "function"
    },
    {
      "inputs": [],
      "name": "totalSupply",
      "outputs": [
        {
          "internalType": "uint256",
          "name": "",
          "type": "uint256"
        }
      ],
      "stateMutability": "view",
      "type": "function"
    },
    {
      "inputs": [
        {
          "internalType": "address",
          "name": "from",
          "type": "address"
        },
        {
          "internalType": "address",
          "name": "to",
          "type": "address"
        },
        {
          "internalType": "uint256",
          "name": "tokenId",
          "type": "uint256"
        }
      ],
      "name": "transferFrom",
      "outputs": [],
      "stateMutability": "nonpayable",
      "type": "function"
    }
  ],
  "bytecode": "0x60806040523480156200001157600080fd5b506040518060400160405280601081526020017f41494d6f64656c4f776e657273686970000000000000000000000000000000008152506040518060400160405280600481526020017f41494d4f0000000000000000000000000000000000000000000000000000000081525081600090816200008f919062000324565b508060019081620000a1919062000324565b5050506200040b565b600081519050919050565b7f4e487b7100000000000000000000000000000000000000000000000000000000600052604160045260246000fd5b7f4e487b7100000000000000000000000000000000000000000000000000000000600052602260045260246000fd5b600060028204905060018216806200012c57607f821691505b602082108103620001425762000141620000e4565b5b50919050565b60008190508160005260206000209050919050565b60006020601f8301049050919050565b600082821b905092915050565b600060088302620001ac7fffffffffffffffffffffffffffffffffffffffffffffffffffffffffffffffff826200016d565b620001b886836200016d565b95508019841693508086168417925050509392505050565b6000819050919050565b6000819050919050565b600062000205620001ff620001f984620001d0565b620001da565b620001d0565b9050919050565b6000819050919050565b6200022183620001e4565b6200023962000230826200020c565b8484546200017a565b825550505050565b600090565b6200025062000241565b6200025d81848462000216565b505050565b5b8181101562000285576200027960008262000246565b60018101905062000263565b5050565b601f821115620002d4576200029e8162000148565b620002a9846200015d565b81016020851015620002b9578190505b620002d1620002c8856200015d565b83018262000262565b50505b505050565b600082821c905092915050565b6000620002f960001984600802620002d9565b1980831691505092915050565b6000620003148383620002e6565b9150826002028217905092915050565b6200032f82620000aa565b67ffffffffffffffff8111156200034b576200034a620000b5565b5b62000357825462000113565b6200036482828562000289565b600060209050601f8311600181146200039c576000841562000387578287015190505b62000393858262000306565b86555062000403565b601f198416620003ac8662000148565b60005b82811015620003d657848901518255600182019150602085019450602081019050620003af565b86831015620003f65784890151620003f2601f891682620002e6565b8355505b6001600288020188555050505b505050505050565b612fbb806200041b6000396000f3fe608060405234801561001057600080fd5b50600436106101165760003560e01c80636352211e116100a2578063aab4206b11610071578063aab4206b14610305578063b88d4fde14610335578063c6e32daa14610351578063c87b56dd14610381578063e985e9c5146103b157610116565b80636352211e1461026b57806370a082311461029b57806395d89b41146102cb578063a22cb465146102e957610116565b806318160ddd116100e957806318160ddd146101b55780631a34a95f146101d357806323b872dd146102035780633775c1581461021f57806342842e0e1461024f57610116565b806301ffc9a71461011b57806306fdde031461014b578063081812fc14610169578063095ea7b314610199575b600080fd5b61013560048036038101906101309190611c04565b6103e1565b6040516101429190611c4c565b60405180910390f35b6101536104c3565b6040516101609190611cf7565b60405180910390f35b610183600480360381019061017e9190611d4f565b610555565b6040516101909190611dbd565b60405180910390f35b6101b360048036038101906101ae9190611e04565b61059b565b005b6101bd6106b2565b6040516101ca9190611e53565b60405180910390f35b6101ed60048036038101906101e89190611d4f565b6106bf565b6040516101fa9190611cf7565b60405180910390f35b61021d60048036038101906102189190611e6e565b6107b2565b005b61023960048036038101906102349190611d4f565b610812565b6040516102469190611cf7565b60405180910390f35b61026960048036038101906102649190611e6e565b610905565b005b61028560048036038101906102809190611d4f565b610925565b6040516102929190611dbd565b60405180910390f35b6102b560048036038101906102b09190611ec1565b6109ab565b6040516102c29190611e53565b60405180910390f35b6102d3610a62565b6040516102e09190611cf7565b60405180910390f35b61030360048036038101906102fe9190611f1a565b610af4565b005b61031f600480360381019061031a9190611d4f565b610b0a565b60405161032c9190611e53565b60405180910390f35b61034f600480360381019061034a919061208f565b610b7b565b005b61036b600480360381019061036691906121b3565b610bdd565b6040516103789190611e53565b60405180910390f35b61039b60048036038101906103969190611d4f565b610c49565b6040516103a89190611cf7565b60405180910390f35b6103cb60048036038101906103c6919061223e565b610cb1565b6040516103d89190611c4c565b60405180910390f35b60007f80ac58cd000000000000000000000000000000000000000000000000000000007bffffffffffffffffffffffffffffffffffffffffffffffffffffffff1916827bffffffffffffffffffffffffffffffffffffffffffffffffffffffff191614806104ac57507f5b5e139f000000000000000000000000000000000000000000000000000000007bffffffffffffffffffffffffffffffffffffffffffffffffffffffff1916827bffffffffffffffffffffffffffffffffffffffffffffffffffffffff1916145b806104bc57506104bb82610d45565b5b9050919050565b6060600080546104d2906122ad565b80601f01602080910402602001604051908101604052809291908181526020018280546104fe906122ad565b801561054b5780601f106105205761010080835404028352916020019161054b565b820191906000526020600020905b81548152906001019060200180831161052e57829003601f168201915b5050505050905090565b600061056082610daf565b6004600083815260200190815260200160002060009054906101000a900473ffffffffffffffffffffffffffffffffffffffff169050919050565b60006105a682610925565b90508073ffffffffffffffffffffffffffffffffffffffff168373ffffffffffffffffffffffffffffffffffffffff1603610616576040517f08c379a000000000000000000000000000000000000000000000000000000000815260040161060d90612350565b60405180910390fd5b8073ffffffffffffffffffffffffffffffffffffffff16610635610dfa565b73ffffffffffffffffffffffffffffffffffffffff16148061066457506106638161065e610dfa565b610cb1565b5b6106a3576040517f08c379a000000000000000000000000000000000000000000000000000000000815260040161069a906123e2565b60405180910390fd5b6106ad8383610e02565b505050565b6000600980549050905090565b60606106ca82610ebb565b610709576040517f08c379a000000000000000000000000000000000000000000000000000000000815260040161070090612474565b60405180910390fd5b6000600760008481526020019081526020016000208054610729906122ad565b80601f0160208091040260200160405190810160405280929190818152602001828054610755906122ad565b80156107a25780601f10610777576101008083540402835291602001916107a2565b820191906000526020600020905b81548152906001019060200180831161078557829003601f168201915b5050505050905080915050919050565b6107c36107bd610dfa565b82610efc565b610802576040517f08c379a00000000000000000000000000000000000000000000000000000000081526004016107f990612506565b60405180910390fd5b61080d838383610f91565b505050565b606061081d82610ebb565b61085c576040517f08c379a000000000000000000000000000000000000000000000000000000000815260040161085390612598565b60405180910390fd5b600060086000848152602001908152602001600020805461087c906122ad565b80601f01602080910402602001604051908101604052809291908181526020018280546108a8906122ad565b80156108f55780601f106108ca576101008083540402835291602001916108f5565b820191906000526020600020905b8154815290600101906020018083116108d857829003601f168201915b5050505050905080915050919050565b61092083838360405180602001604052806000815250610b7b565b505050565b6000806109318361128a565b9050600073ffffffffffffffffffffffffffffffffffffffff168173ffffffffffffffffffffffffffffffffffffffff16036109a2576040517f08c379a000000000000000000000000000000000000000000000000000000000815260040161099990612604565b60405180910390fd5b80915050919050565b60008073ffffffffffffffffffffffffffffffffffffffff168273ffffffffffffffffffffffffffffffffffffffff1603610a1b576040517f08c379a0000000000000000000000000000000000000000000000000000000008152600401610a1290612696565b60405180910390fd5b600360008373ffffffffffffffffffffffffffffffffffffffff1673ffffffffffffffffffffffffffffffffffffffff168152602001908152602001600020549050919050565b606060018054610a71906122ad565b80601f0160208091040260200160405190810160405280929190818152602001828054610a9d906122ad565b8015610aea5780601f10610abf57610100808354040283529160200191610aea565b820191906000526020600020905b815481529060010190602001808311610acd57829003601f168201915b5050505050905090565b610b06610aff610dfa565b83836112c7565b5050565b6000610b146106b2565b8210610b55576040517f08c379a0000000000000000000000000000000000000000000000000000000008152600401610b4c90612728565b60405180910390fd5b60098281548110610b6957610b68612748565b5b90600052602060002001549050919050565b610b8c610b86610dfa565b83610efc565b610bcb576040517f08c379a0000000000000000000000000000000000000000000000000000000008152600401610bc290612506565b60405180910390fd5b610bd784848484611433565b50505050565b6000610be9600661148f565b6000610bf560066114a5565b9050610c0185826114b3565b610c0b81856116d0565b610c15818461173d565b6009819080600181540180825580915050600190039060005260206000200160009091909190915055809150509392505050565b6060610c5482610daf565b6000610c5e6117aa565b90506000815111610c7e5760405180602001604052806000815250610ca9565b80610c88846117c1565b604051602001610c999291906127b3565b6040516020818303038152906040525b915050919050565b6000600560008473ffffffffffffffffffffffffffffffffffffffff1673ffffffffffffffffffffffffffffffffffffffff16815260200190815260200160002060008373ffffffffffffffffffffffffffffffffffffffff1673ffffffffffffffffffffffffffffffffffffffff16815260200190815260200160002060009054906101000a900460ff16905092915050565b60007f01ffc9a7000000000000000000000000000000000000000000000000000000007bffffffffffffffffffffffffffffffffffffffffffffffffffffffff1916827bffffffffffffffffffffffffffffffffffffffffffffffffffffffff1916149050919050565b610db881610ebb565b610df7576040517f08c379a0000000000000000000000000000000000000000000000000000000008152600401610dee90612604565b60405180910390fd5b50565b600033905090565b816004600083815260200190815260200160002060006101000a81548173ffffffffffffffffffffffffffffffffffffffff021916908373ffffffffffffffffffffffffffffffffffffffff160217905550808273ffffffffffffffffffffffffffffffffffffffff16610e7583610925565b73ffffffffffffffffffffffffffffffffffffffff167f8c5be1e5ebec7d5bd14f71427d1e84f3dd0314c0f7b2291e5b200ac8c7c3b92560405160405180910390a45050565b60008073ffffffffffffffffffffffffffffffffffffffff16610edd8361128a565b73ffffffffffffffffffffffffffffffffffffffff1614159050919050565b600080610f0883610925565b90508073ffffffffffffffffffffffffffffffffffffffff168473ffffffffffffffffffffffffffffffffffffffff161480610f4a5750610f498185610cb1565b5b80610f8857508373ffffffffffffffffffffffffffffffffffffffff16610f7084610555565b73ffffffffffffffffffffffffffffffffffffffff16145b91505092915050565b8273ffffffffffffffffffffffffffffffffffffffff16610fb182610925565b73ffffffffffffffffffffffffffffffffffffffff1614611007576040517f08c379a0000000000000000000000000000000000000000000000000000000008152600401610ffe90612849565b60405180910390fd5b600073ffffffffffffffffffffffffffffffffffffffff168273ffffffffffffffffffffffffffffffffffffffff1603611076576040517f08c379a000000000000000000000000000000000000000000000000000000000815260040161106d906128db565b60405180910390fd5b611083838383600161188f565b8273ffffffffffffffffffffffffffffffffffffffff166110a382610925565b73ffffffffffffffffffffffffffffffffffffffff16146110f9576040517f08c379a00000000000000000000000000000000000000000000000000000000081526004016110f090612849565b60405180910390fd5b6004600082815260200190815260200160002060006101000a81549073ffffffffffffffffffffffffffffffffffffffff02191690556001600360008573ffffffffffffffffffffffffffffffffffffffff1673ffffffffffffffffffffffffffffffffffffffff168152602001908152602001600020600082825403925050819055506001600360008473ffffffffffffffffffffffffffffffffffffffff1673ffffffffffffffffffffffffffffffffffffffff16815260200190815260200160002060008282540192505081905550816002600083815260200190815260200160002060006101000a81548173ffffffffffffffffffffffffffffffffffffffff021916908373ffffffffffffffffffffffffffffffffffffffff160217905550808273ffffffffffffffffffffffffffffffffffffffff168473ffffffffffffffffffffffffffffffffffffffff167fddf252ad1be2c89b69c2b068fc378daa952ba7f163c4a11628f55a4df523b3ef60405160405180910390a46112858383836001611895565b505050565b60006002600083815260200190815260200160002060009054906101000a900473ffffffffffffffffffffffffffffffffffffffff169050919050565b8173ffffffffffffffffffffffffffffffffffffffff168373ffffffffffffffffffffffffffffffffffffffff1603611335576040517f08c379a000000000000000000000000000000000000000000000000000000000815260040161132c90612947565b60405180910390fd5b80600560008573ffffffffffffffffffffffffffffffffffffffff1673ffffffffffffffffffffffffffffffffffffffff16815260200190815260200160002060008473ffffffffffffffffffffffffffffffffffffffff1673ffffffffffffffffffffffffffffffffffffffff16815260200190815260200160002060006101000a81548160ff0219169083151502179055508173ffffffffffffffffffffffffffffffffffffffff168373ffffffffffffffffffffffffffffffffffffffff167f17307eab39ab6107e8899845ad3d59bd9653f200f220920489ca2b5937696c31836040516114269190611c4c565b60405180910390a3505050565b61143e848484610f91565b61144a8484848461189b565b611489576040517f08c379a0000000000000000000000000000000000000000000000000000000008152600401611480906129d9565b60405180910390fd5b50505050565b6001816000016000828254019250508190555050565b600081600001549050919050565b600073ffffffffffffffffffffffffffffffffffffffff168273ffffffffffffffffffffffffffffffffffffffff1603611522576040517f08c379a000000000000000000000000000000000000000000000000000000000815260040161151990612a45565b60405180910390fd5b61152b81610ebb565b1561156b576040517f08c379a000000000000000000000000000000000000000000000000000000000815260040161156290612ab1565b60405180910390fd5b61157960008383600161188f565b61158281610ebb565b156115c2576040517f08c379a00000000000000000000000000000000000000000000000000000000081526004016115b990612ab1565b60405180910390fd5b6001600360008473ffffffffffffffffffffffffffffffffffffffff1673ffffffffffffffffffffffffffffffffffffffff16815260200190815260200160002060008282540192505081905550816002600083815260200190815260200160002060006101000a81548173ffffffffffffffffffffffffffffffffffffffff021916908373ffffffffffffffffffffffffffffffffffffffff160217905550808273ffffffffffffffffffffffffffffffffffffffff16600073ffffffffffffffffffffffffffffffffffffffff167fddf252ad1be2c89b69c2b068fc378daa952ba7f163c4a11628f55a4df523b3ef60405160405180910390a46116cc600083836001611895565b5050565b6116d982610ebb565b611718576040517f08c379a000000000000000000000000000000000000000000000000000000000815260040161170f90612b43565b60405180910390fd5b806007600084815260200190815260200160002090816117389190612d0f565b505050565b61174682610ebb565b611785576040517f08c379a000000000000000000000000000000000000000000000000000000000815260040161177c90612e53565b60405180910390fd5b806008600084815260200190815260200160002090816117a59190612d0f565b505050565b606060405180602001604052806000815250905090565b6060600060016117d084611a22565b01905060008167ffffffffffffffff8111156117ef576117ee611f64565b5b6040519080825280601f01601f1916602001820160405280156118215781602001600182028036833780820191505090505b509050600082602001820190505b600115611884578080600190039150507f3031323334353637383961626364656600000000000000000000000000000000600a86061a8153600a858161187857611877612e73565b5b0494506000850361182f575b819350505050919050565b50505050565b50505050565b60006118bc8473ffffffffffffffffffffffffffffffffffffffff16611b75565b15611a15578373ffffffffffffffffffffffffffffffffffffffff1663150b7a026118e5610dfa565b8786866040518563ffffffff1660e01b81526004016119079493929190612ef7565b6020604051808303816000875af192505050801561194357506040513d601f19601f820116820180604052508101906119409190612f58565b60015b6119c5573d8060008114611973576040519150601f19603f3d011682016040523d82523d6000602084013e611978565b606091505b5060008151036119bd576040517f08c379a00000000000000000000000000000000000000000000000000000000081526004016119b4906129d9565b60405180910390fd5b805181602001fd5b63150b7a0260e01b7bffffffffffffffffffffffffffffffffffffffffffffffffffffffff1916817bffffffffffffffffffffffffffffffffffffffffffffffffffffffff191614915050611a1a565b600190505b949350505050565b600080600090507a184f03e93ff9f4daa797ed6e38ed64bf6a1f0100000000000000008310611a80577a184f03e93ff9f4daa797ed6e38ed64bf6a1f0100000000000000008381611a7657611a75612e73565b5b0492506040810190505b6d04ee2d6d415b85acef81000000008310611abd576d04ee2d6d415b85acef81000000008381611ab357611ab2612e73565b5b0492506020810190505b662386f26fc100008310611aec57662386f26fc100008381611ae257611ae1612e73565b5b0492506010810190505b6305f5e1008310611b15576305f5e1008381611b0b57611b0a612e73565b5b0492506008810190505b6127108310611b3a576127108381611b3057611b2f612e73565b5b0492506004810190505b60648310611b5d5760648381611b5357611b52612e73565b5b0492506002810190505b600a8310611b6c576001810190505b80915050919050565b6000808273ffffffffffffffffffffffffffffffffffffffff163b119050919050565b6000604051905090565b600080fd5b600080fd5b60007fffffffff0000000000000000000000000000000000000000000000000000000082169050919050565b611be181611bac565b8114611bec57600080fd5b50565b600081359050611bfe81611bd8565b92915050565b600060208284031215611c1a57611c19611ba2565b5b6000611c2884828501611bef565b91505092915050565b60008115159050919050565b611c4681611c31565b82525050565b6000602082019050611c616000830184611c3d565b92915050565b600081519050919050565b600082825260208201905092915050565b60005b83811015611ca1578082015181840152602081019050611c86565b60008484015250505050565b6000601f19601f8301169050919050565b6000611cc982611c67565b611cd38185611c72565b9350611ce3818560208601611c83565b611cec81611cad565b840191505092915050565b60006020820190508181036000830152611d118184611cbe565b905092915050565b6000819050919050565b611d2c81611d19565b8114611d3757600080fd5b50565b600081359050611d4981611d23565b92915050565b600060208284031215611d6557611d64611ba2565b5b6000611d7384828501611d3a565b91505092915050565b600073ffffffffffffffffffffffffffffffffffffffff82169050919050565b6000611da782611d7c565b9050919050565b611db781611d9c565b82525050565b6000602082019050611dd26000830184611dae565b92915050565b611de181611d9c565b8114611dec57600080fd5b50565b600081359050611dfe81611dd8565b92915050565b60008060408385031215611e1b57611e1a611ba2565b5b6000611e2985828601611def565b9250506020611e3a85828601611d3a565b9150509250929050565b611e4d81611d19565b82525050565b6000602082019050611e686000830184611e44565b92915050565b600080600060608486031215611e8757611e86611ba2565b5b6000611e9586828701611def565b9350506020611ea686828701611def565b9250506040611eb786828701611d3a565b9150509250925092565b600060208284031215611ed757611ed6611ba2565b5b6000611ee584828501611def565b91505092915050565b611ef781611c31565b8114611f0257600080fd5b50565b600081359050611f1481611eee565b92915050565b60008060408385031215611f3157611f30611ba2565b5b6000611f3f85828601611def565b9250506020611f5085828601611f05565b9150509250929050565b600080fd5b600080fd5b7f4e487b7100000000000000000000000000000000000000000000000000000000600052604160045260246000fd5b611f9c82611cad565b810181811067ffffffffffffffff82111715611fbb57611fba611f64565b5b80604052505050565b6000611fce611b98565b9050611fda8282611f93565b919050565b600067ffffffffffffffff821115611ffa57611ff9611f64565b5b61200382611cad565b9050602081019050919050565b82818337600083830152505050565b600061203261202d84611fdf565b611fc4565b90508281526020810184848401111561204e5761204d611f5f565b5b612059848285612010565b509392505050565b600082601f83011261207657612075611f5a565b5b813561208684826020860161201f565b91505092915050565b600080600080608085870312156120a9576120a8611ba2565b5b60006120b787828801611def565b94505060206120c887828801611def565b93505060406120d987828801611d3a565b925050606085013567ffffffffffffffff8111156120fa576120f9611ba7565b5b61210687828801612061565b91505092959194509250565b600067ffffffffffffffff82111561212d5761212c611f64565b5b61213682611cad565b9050602081019050919050565b600061215661215184612112565b611fc4565b90508281526020810184848401111561217257612171611f5f565b5b61217d848285612010565b509392505050565b600082601f83011261219a57612199611f5a565b5b81356121aa848260208601612143565b91505092915050565b6000806000606084860312156121cc576121cb611ba2565b5b60006121da86828701611def565b935050602084013567ffffffffffffffff8111156121fb576121fa611ba7565b5b61220786828701612185565b925050604084013567ffffffffffffffff81111561222857612227611ba7565b5b61223486828701612185565b9150509250925092565b6000806040838503121561225557612254611ba2565b5b600061226385828601611def565b925050602061227485828601611def565b9150509250929050565b7f4e487b7100000000000000000000000000000000000000000000000000000000600052602260045260246000fd5b600060028204905060018216806122c557607f821691505b6020821081036122d8576122d761227e565b5b50919050565b7f4552433732313a20617070726f76616c20746f2063757272656e74206f776e6560008201527f7200000000000000000000000000000000000000000000000000000000000000602082015250565b600061233a602183611c72565b9150612345826122de565b604082019050919050565b600060208201905081810360008301526123698161232d565b9050919050565b7f4552433732313a20617070726f76652063616c6c6572206973206e6f7420746f60008201527f6b656e206f776e6572206f7220617070726f76656420666f7220616c6c000000602082015250565b60006123cc603d83611c72565b91506123d782612370565b604082019050919050565b600060208201905081810360008301526123fb816123bf565b9050919050565b7f45524337323155524953746f726167653a2055524920717565727920666f722060008201527f6e6f6e6578697374656e74206d6f64656c000000000000000000000000000000602082015250565b600061245e603183611c72565b915061246982612402565b604082019050919050565b6000602082019050818103600083015261248d81612451565b9050919050565b7f4552433732313a2063616c6c6572206973206e6f7420746f6b656e206f776e6560008201527f72206f7220617070726f76656400000000000000000000000000000000000000602082015250565b60006124f0602d83611c72565b91506124fb82612494565b604082019050919050565b6000602082019050818103600083015261251f816124e3565b9050919050565b7f4552433732314d657461646174613a2043617465676f7279207175657279206660008201527f6f72206e6f6e6578697374656e74206d6f64656c000000000000000000000000602082015250565b6000612582603483611c72565b915061258d82612526565b604082019050919050565b600060208201905081810360008301526125b181612575565b9050919050565b7f4552433732313a20696e76616c696420746f6b656e2049440000000000000000600082015250565b60006125ee601883611c72565b91506125f9826125b8565b602082019050919050565b6000602082019050818103600083015261261d816125e1565b9050919050565b7f4552433732313a2061646472657373207a65726f206973206e6f74206120766160008201527f6c6964206f776e65720000000000000000000000000000000000000000000000602082015250565b6000612680602983611c72565b915061268b82612624565b604082019050919050565b600060208201905081810360008301526126af81612673565b9050919050565b7f455243373231456e756d657261626c653a20676c6f62616c20696e646578206f60008201527f7574206f6620626f756e64730000000000000000000000000000000000000000602082015250565b6000612712602c83611c72565b915061271d826126b6565b604082019050919050565b6000602082019050818103600083015261274181612705565b9050919050565b7f4e487b7100000000000000000000000000000000000000000000000000000000600052603260045260246000fd5b600081905092915050565b600061278d82611c67565b6127978185612777565b93506127a7818560208601611c83565b80840191505092915050565b60006127bf8285612782565b91506127cb8284612782565b91508190509392505050565b7f4552433732313a207472616e736665722066726f6d20696e636f72726563742060008201527f6f776e6572000000000000000000000000000000000000000000000000000000602082015250565b6000612833602583611c72565b915061283e826127d7565b604082019050919050565b6000602082019050818103600083015261286281612826565b9050919050565b7f4552433732313a207472616e7366657220746f20746865207a65726f2061646460008201527f7265737300000000000000000000000000000000000000000000000000000000602082015250565b60006128c5602483611c72565b91506128d082612869565b604082019050919050565b600060208201905081810360008301526128f4816128b8565b9050919050565b7f4552433732313a20617070726f766520746f2063616c6c657200000000000000600082015250565b6000612931601983611c72565b915061293c826128fb565b602082019050919050565b6000602082019050818103600083015261296081612924565b9050919050565b7f4552433732313a207472616e7366657220746f206e6f6e20455243373231526560008201527f63656976657220696d706c656d656e7465720000000000000000000000000000602082015250565b60006129c3603283611c72565b91506129ce82612967565b604082019050919050565b600060208201905081810360008301526129f2816129b6565b9050919050565b7f4552433732313a206d696e7420746f20746865207a65726f2061646472657373600082015250565b6000612a2f602083611c72565b9150612a3a826129f9565b602082019050919050565b60006020820190508181036000830152612a5e81612a22565b9050919050565b7f4552433732313a20746f6b656e20616c7265616479206d696e74656400000000600082015250565b6000612a9b601c83611c72565b9150612aa682612a65565b602082019050919050565b60006020820190508181036000830152612aca81612a8e565b9050919050565b7f45524337323155524953746f726167653a2055524920736574206f66206e6f6e60008201527f6578697374656e74206d6f64656c000000000000000000000000000000000000602082015250565b6000612b2d602e83611c72565b9150612b3882612ad1565b604082019050919050565b60006020820190508181036000830152612b5c81612b20565b9050919050565b60008190508160005260206000209050919050565b60006020601f8301049050919050565b600082821b905092915050565b600060088302612bc57fffffffffffffffffffffffffffffffffffffffffffffffffffffffffffffffff82612b88565b612bcf8683612b88565b95508019841693508086168417925050509392505050565b6000819050919050565b6000612c0c612c07612c0284611d19565b612be7565b611d19565b9050919050565b6000819050919050565b612c2683612bf1565b612c3a612c3282612c13565b848454612b95565b825550505050565b600090565b612c4f612c42565b612c5a818484612c1d565b505050565b5b81811015612c7e57612c73600082612c47565b600181019050612c60565b5050565b601f821115612cc357612c9481612b63565b612c9d84612b78565b81016020851015612cac578190505b612cc0612cb885612b78565b830182612c5f565b50505b505050565b600082821c905092915050565b6000612ce660001984600802612cc8565b1980831691505092915050565b6000612cff8383612cd5565b9150826002028217905092915050565b612d1882611c67565b67ffffffffffffffff811115612d3157612d30611f64565b5b612d3b82546122ad565b612d46828285612c82565b600060209050601f831160018114612d795760008415612d67578287015190505b612d718582612cf3565b865550612dd9565b601f198416612d8786612b63565b60005b82811015612daf57848901518255600182019150602085019450602081019050612d8a565b86831015612dcc5784890151612dc8601f891682612cd5565b8355505b6001600288020188555050505b505050505050565b7f4552433732314d657461646174613a2043617465676f727920736574206f662060008201527f6e6f6e6578697374656e74206d6f64656c000000000000000000000000000000602082015250565b6000612e3d603183611c72565b9150612e4882612de1565b604082019050919050565b60006020820190508181036000830152612e6c81612e30565b9050919050565b7f4e487b7100000000000000000000000000000000000000000000000000000000600052601260045260246000fd5b600081519050919050565b600082825260208201905092915050565b6000612ec982612ea2565b612ed38185612ead565b9350612ee3818560208601611c83565b612eec81611cad565b840191505092915050565b6000608082019050612f0c6000830187611dae565b612f196020830186611dae565b612f266040830185611e44565b8181036060830152612f388184612ebe565b905095945050505050565b600081519050612f5281611bd8565b92915050565b600060208284031215612f6e57612f6d611ba2565b5b6000612f7c84828501612f43565b9150509291505056fea264697066735822122019e14dc41afc12ef348bc7f21be63d972ad1889e7f3ada3f4ebb095a1e0270a364736f6c63430008110033",
  "linkReferences": {},
  "deployedLinkReferences": {}
}