{
  "_format": "hh-sol-artifact-1",
  "contractName": "JobManager",
  "sourceName": "contracts/JobManager.sol",
  "abi": [
    {
      "inputs": [
        {
          "internalType": "address",
          "name": "ownershipContractAddress",
          "type": "address"
        }
      ],
      "stateMutability": "nonpayable",
      "type": "constructor"
    },
    {
      "anonymous": false,
      "inputs": [
        {
          "indexed": true,
          "internalType": "address",
          "name": "workerAddress",
          "type": "address"
        },
        {
          "indexed": false,
          "internalType": "uint256",
          "name": "jobId",
          "type": "uint256"
        },
        {
          "indexed": false,
          "internalType": "uint256",
          "name": "modelId",
          "type": "uint256"
        },
        {
          "indexed": false,
          "internalType": "string",
          "name": "prompt",
          "type": "string"
        },
        {
          "indexed": false,
          "internalType": "string",
          "name": "resultCid",
          "type": "string"
        }
      ],
      "name": "JobSubmited",
      "type": "event"
    },
    {
      "anonymous": false,
      "inputs": [
        {
          "indexed": true,
          "internalType": "address",
          "name": "workerAddress",
          "type": "address"
        },
        {
          "indexed": false,
          "internalType": "uint256",
          "name": "jobId",
          "type": "uint256"
        },
        {
          "indexed": false,
          "internalType": "uint256",
          "name": "modelId",
          "type": "uint256"
        },
        {
          "indexed": false,
          "internalType": "string",
          "name": "prompt",
          "type": "string"
        }
      ],
      "name": "NewJobCreated",
      "type": "event"
    },
    {
      "inputs": [
        {
          "internalType": "address",
          "name": "_address",
          "type": "address"
        }
      ],
      "name": "balanceOf",
      "outputs": [
        {
          "internalType": "uint256",
          "name": "_balance",
          "type": "uint256"
        }
      ],
      "stateMutability": "view",
      "type": "function"
    },
    {
      "inputs": [
        {
          "internalType": "address",
          "name": "",
          "type": "address"
        }
      ],
      "name": "balances",
      "outputs": [
        {
          "internalType": "uint256",
          "name": "",
          "type": "uint256"
        }
      ],
      "stateMutability": "view",
      "type": "function"
    },
    {
      "inputs": [
        {
          "internalType": "uint256",
          "name": "modelId",
          "type": "uint256"
        },
        {
          "internalType": "string",
          "name": "prompt",
          "type": "string"
        }
      ],
      "name": "createNewJob",
      "outputs": [],
      "stateMutability": "payable",
      "type": "function"
    },
    {
      "inputs": [
        {
          "internalType": "address",
          "name": "_address",
          "type": "address"
        },
        {
          "internalType": "uint256",
          "name": "_value",
          "type": "uint256"
        }
      ],
      "name": "distributeReward",
      "outputs": [],
      "stateMutability": "nonpayable",
      "type": "function"
    },
    {
      "inputs": [],
      "name": "getJobsByOwner",
      "outputs": [
        {
          "internalType": "uint256[]",
          "name": "",
          "type": "uint256[]"
        }
      ],
      "stateMutability": "view",
      "type": "function"
    },
    {
      "inputs": [
        {
          "internalType": "uint256",
          "name": "",
          "type": "uint256"
        }
      ],
      "name": "jobToConsumer",
      "outputs": [
        {
          "internalType": "address",
          "name": "",
          "type": "address"
        }
      ],
      "stateMutability": "view",
      "type": "function"
    },
    {
      "inputs": [
        {
          "internalType": "uint256",
          "name": "",
          "type": "uint256"
        }
      ],
      "name": "jobs",
      "outputs": [
        {
          "internalType": "uint256",
          "name": "jobId",
          "type": "uint256"
        },
        {
          "internalType": "uint256",
          "name": "modelId",
          "type": "uint256"
        },
        {
          "internalType": "uint256",
          "name": "createTime",
          "type": "uint256"
        },
        {
          "internalType": "address",
          "name": "owner",
          "type": "address"
        },
        {
          "internalType": "address",
          "name": "worker",
          "type": "address"
        },
        {
          "internalType": "string",
          "name": "prompt",
          "type": "string"
        },
        {
          "internalType": "string",
          "name": "resultCid",
          "type": "string"
        },
        {
          "internalType": "enum JobManager.Status",
          "name": "status",
          "type": "uint8"
        }
      ],
      "stateMutability": "view",
      "type": "function"
    },
    {
      "inputs": [],
      "name": "modelOwnershipContractAddress",
      "outputs": [
        {
          "internalType": "address",
          "name": "",
          "type": "address"
        }
      ],
      "stateMutability": "view",
      "type": "function"
    },
    {
      "inputs": [],
      "name": "owner",
      "outputs": [
        {
          "internalType": "address",
          "name": "",
          "type": "address"
        }
      ],
      "stateMutability": "view",
      "type": "function"
    },
    {
      "inputs": [],
      "name": "stake",
      "outputs": [],
      "stateMutability": "payable",
      "type": "function"
    },
    {
      "inputs": [
        {
          "internalType": "string",
          "name": "cid",
          "type": "string"
        },
        {
          "internalType": "uint256",
          "name": "jobId",
          "type": "uint256"
        }
      ],
      "name": "submitJob",
      "outputs": [],
      "stateMutability": "nonpayable",
      "type": "function"
    },
    {
      "inputs": [],
      "name": "unstake",
      "outputs": [],
      "stateMutability": "nonpayable",
      "type": "function"
    }
  ],
  "bytecode": "0x608060405267016345785d8a000060015566038d7ea4c68000600b553480156200002857600080fd5b50604051620025ec380380620025ec83398181016040528101906200004e919062000182565b80600260006101000a81548173ffffffffffffffffffffffffffffffffffffffff021916908373ffffffffffffffffffffffffffffffffffffffff16021790555080600360006101000a81548173ffffffffffffffffffffffffffffffffffffffff021916908373ffffffffffffffffffffffffffffffffffffffff16021790555033600660006101000a81548173ffffffffffffffffffffffffffffffffffffffff021916908373ffffffffffffffffffffffffffffffffffffffff16021790555050620001b4565b600080fd5b600073ffffffffffffffffffffffffffffffffffffffff82169050919050565b60006200014a826200011d565b9050919050565b6200015c816200013d565b81146200016857600080fd5b50565b6000815190506200017c8162000151565b92915050565b6000602082840312156200019b576200019a62000118565b5b6000620001ab848285016200016b565b91505092915050565b61242880620001c46000396000f3fe6080604052600436106100a75760003560e01c8063533b297e11610064578063533b297e146101a057806370a08231146101bc5780638da5cb5b146101f957806399a8ebdf14610224578063cb4853d414610261578063eebc77a91461028c576100a7565b8063180aedf3146100ac5780631ec8bb8c146100f0578063267650791461011957806327e235e3146101425780632def66201461017f5780633a4b66f114610196575b600080fd5b3480156100b857600080fd5b506100d360048036038101906100ce9190611476565b6102b7565b6040516100e79897969594939291906115fa565b60405180910390f35b3480156100fc57600080fd5b50610117600480360381019061011291906116b2565b61046c565b005b34801561012557600080fd5b50610140600480360381019061013b9190611757565b610639565b005b34801561014e57600080fd5b50610169600480360381019061016491906117b7565b6107b4565b60405161017691906117e4565b60405180910390f35b34801561018b57600080fd5b506101946107cc565b005b61019e61092d565b005b6101ba60048036038101906101b591906117ff565b6109de565b005b3480156101c857600080fd5b506101e360048036038101906101de91906117b7565b610ed1565b6040516101f091906117e4565b60405180910390f35b34801561020557600080fd5b5061020e610f19565b60405161021b919061185f565b60405180910390f35b34801561023057600080fd5b5061024b60048036038101906102469190611476565b610f3f565b604051610258919061185f565b60405180910390f35b34801561026d57600080fd5b50610276610f72565b604051610283919061185f565b60405180910390f35b34801561029857600080fd5b506102a1610f98565b6040516102ae9190611938565b60405180910390f35b600781815481106102c757600080fd5b90600052602060002090600802016000915090508060000154908060010154908060020154908060030160009054906101000a900473ffffffffffffffffffffffffffffffffffffffff16908060040160009054906101000a900473ffffffffffffffffffffffffffffffffffffffff169080600501805461034890611989565b80601f016020809104026020016040519081016040528092919081815260200182805461037490611989565b80156103c15780601f10610396576101008083540402835291602001916103c1565b820191906000526020600020905b8154815290600101906020018083116103a457829003601f168201915b5050505050908060060180546103d690611989565b80601f016020809104026020016040519081016040528092919081815260200182805461040290611989565b801561044f5780601f106104245761010080835404028352916020019161044f565b820191906000526020600020905b81548152906001019060200180831161043257829003601f168201915b5050505050908060070160009054906101000a900460ff16905088565b600660009054906101000a900473ffffffffffffffffffffffffffffffffffffffff1673ffffffffffffffffffffffffffffffffffffffff163373ffffffffffffffffffffffffffffffffffffffff16146104fc576040517f08c379a00000000000000000000000000000000000000000000000000000000081526004016104f390611a06565b60405180910390fd5b80600080600660009054906101000a900473ffffffffffffffffffffffffffffffffffffffff1673ffffffffffffffffffffffffffffffffffffffff1673ffffffffffffffffffffffffffffffffffffffff16815260200190815260200160002054101561056957600080fd5b80600080600660009054906101000a900473ffffffffffffffffffffffffffffffffffffffff1673ffffffffffffffffffffffffffffffffffffffff1673ffffffffffffffffffffffffffffffffffffffff16815260200190815260200160002060008282546105d99190611a55565b92505081905550806000808473ffffffffffffffffffffffffffffffffffffffff1673ffffffffffffffffffffffffffffffffffffffff168152602001908152602001600020600082825461062e9190611a89565b925050819055505050565b6009600082815260200190815260200160002060009054906101000a900473ffffffffffffffffffffffffffffffffffffffff1673ffffffffffffffffffffffffffffffffffffffff163373ffffffffffffffffffffffffffffffffffffffff16146106da576040517f08c379a00000000000000000000000000000000000000000000000000000000081526004016106d190611b2f565b60405180910390fd5b600060076001836106eb9190611a55565b815481106106fc576106fb611b4f565b5b90600052602060002090600802019050838382600601918261071f929190611d64565b5060018160070160006101000a81548160ff0219169083600181111561074857610747611583565b5b02179055503373ffffffffffffffffffffffffffffffffffffffff167fc5492bfd04f8528d6058525927607993c44f1cda85c7f6be3ead442017547479826000015483600101548460050188886040516107a6959493929190611ef4565b60405180910390a250505050565b60006020528060005260406000206000915090505481565b60008060003373ffffffffffffffffffffffffffffffffffffffff1673ffffffffffffffffffffffffffffffffffffffff168152602001908152602001600020541161084d576040517f08c379a000000000000000000000000000000000000000000000000000000000815260040161084490611fbb565b60405180910390fd5b3373ffffffffffffffffffffffffffffffffffffffff166108fc6000803373ffffffffffffffffffffffffffffffffffffffff1673ffffffffffffffffffffffffffffffffffffffff168152602001908152602001600020549081150290604051600060405180830381858888f193505050501580156108d1573d6000803e3d6000fd5b5060008060003373ffffffffffffffffffffffffffffffffffffffff1673ffffffffffffffffffffffffffffffffffffffff1681526020019081526020016000208190555061092a3360046110e890919063ffffffff16565b50565b600154341015610972576040517f08c379a000000000000000000000000000000000000000000000000000000000815260040161096990612027565b60405180910390fd5b346000803373ffffffffffffffffffffffffffffffffffffffff1673ffffffffffffffffffffffffffffffffffffffff16815260200190815260200160002060008282546109c09190611a89565b925050819055506109db33600461111890919063ffffffff16565b50565b600b54341015610a23576040517f08c379a0000000000000000000000000000000000000000000000000000000008152600401610a1a90612093565b60405180910390fd5b600073ffffffffffffffffffffffffffffffffffffffff16600360009054906101000a900473ffffffffffffffffffffffffffffffffffffffff1673ffffffffffffffffffffffffffffffffffffffff16636352211e856040518263ffffffff1660e01b8152600401610a9691906117e4565b602060405180830381865afa158015610ab3573d6000803e3d6000fd5b505050506040513d601f19601f82011682018060405250810190610ad791906120c8565b73ffffffffffffffffffffffffffffffffffffffff1603610b2d576040517f08c379a0000000000000000000000000000000000000000000000000000000008152600401610b2490612141565b60405180910390fd5b34600080600660009054906101000a900473ffffffffffffffffffffffffffffffffffffffff1673ffffffffffffffffffffffffffffffffffffffff1673ffffffffffffffffffffffffffffffffffffffff1681526020019081526020016000206000828254610b9d9190611a89565b925050819055506000610bae611148565b9050610bba60086111cf565b6000610bc660086111e5565b905060006040518061010001604052808381526020018781526020014281526020013373ffffffffffffffffffffffffffffffffffffffff1681526020018473ffffffffffffffffffffffffffffffffffffffff16815260200186868080601f016020809104026020016040519081016040528093929190818152602001838380828437600081840152601f19601f82011690508083019250505050505050815260200160405180602001604052806000815250815260200160006001811115610c9357610c92611583565b5b8152509050600781908060018154018082558091505060019003906000526020600020906008020160009091909190915060008201518160000155602082015181600101556040820151816002015560608201518160030160006101000a81548173ffffffffffffffffffffffffffffffffffffffff021916908373ffffffffffffffffffffffffffffffffffffffff16021790555060808201518160040160006101000a81548173ffffffffffffffffffffffffffffffffffffffff021916908373ffffffffffffffffffffffffffffffffffffffff16021790555060a0820151816005019081610d859190612161565b5060c0820151816006019081610d9b9190612161565b5060e08201518160070160006101000a81548160ff02191690836001811115610dc757610dc6611583565b5b02179055505050600a60003373ffffffffffffffffffffffffffffffffffffffff1673ffffffffffffffffffffffffffffffffffffffff1681526020019081526020016000206000815480929190610e1e90612233565b9190505550336009600084815260200190815260200160002060006101000a81548173ffffffffffffffffffffffffffffffffffffffff021916908373ffffffffffffffffffffffffffffffffffffffff1602179055508273ffffffffffffffffffffffffffffffffffffffff167fb2baccd829b53b15d6304c71f4f7b9603a057b3832c7b430f75e27fa024816e083888888604051610ec1949392919061227b565b60405180910390a2505050505050565b60008060008373ffffffffffffffffffffffffffffffffffffffff1673ffffffffffffffffffffffffffffffffffffffff168152602001908152602001600020549050919050565b600660009054906101000a900473ffffffffffffffffffffffffffffffffffffffff1681565b60096020528060005260406000206000915054906101000a900473ffffffffffffffffffffffffffffffffffffffff1681565b600260009054906101000a900473ffffffffffffffffffffffffffffffffffffffff1681565b60606000600a60003373ffffffffffffffffffffffffffffffffffffffff1673ffffffffffffffffffffffffffffffffffffffff1681526020019081526020016000205467ffffffffffffffff811115610ff557610ff4611b89565b5b6040519080825280602002602001820160405280156110235781602001602082028036833780820191505090505b5090506000805b6007805490508110156110df573373ffffffffffffffffffffffffffffffffffffffff166009600083815260200190815260200160002060009054906101000a900473ffffffffffffffffffffffffffffffffffffffff1673ffffffffffffffffffffffffffffffffffffffff16036110cc57808383815181106110b1576110b0611b4f565b5b60200260200101818152505081806110c890612233565b9250505b80806110d790612233565b91505061102a565b50819250505090565b6000611110836000018373ffffffffffffffffffffffffffffffffffffffff1660001b6111f3565b905092915050565b6000611140836000018373ffffffffffffffffffffffffffffffffffffffff1660001b611307565b905092915050565b6000806111556004611377565b11611195576040517f08c379a000000000000000000000000000000000000000000000000000000000815260040161118c90612307565b60405180910390fd5b60006111a16004611377565b6111a961138c565b6111b39190612356565b90506111c98160046113bd90919063ffffffff16565b91505090565b6001816000016000828254019250508190555050565b600081600001549050919050565b600080836001016000848152602001908152602001600020549050600081146112fb5760006001826112259190611a55565b905060006001866000018054905061123d9190611a55565b90508181146112ac57600086600001828154811061125e5761125d611b4f565b5b906000526020600020015490508087600001848154811061128257611281611b4f565b5b90600052602060002001819055508387600101600083815260200190815260200160002081905550505b856000018054806112c0576112bf612387565b5b600190038181906000526020600020016000905590558560010160008681526020019081526020016000206000905560019350505050611301565b60009150505b92915050565b600061131383836113d7565b61136c578260000182908060018154018082558091505060019003906000526020600020016000909190919091505582600001805490508360010160008481526020019081526020016000208190555060019050611371565b600090505b92915050565b6000611385826000016113fa565b9050919050565b60004260405160200161139f91906123d7565b6040516020818303038152906040528051906020012060001c905090565b60006113cc836000018361140b565b60001c905092915050565b600080836001016000848152602001908152602001600020541415905092915050565b600081600001805490509050919050565b600082600001828154811061142357611422611b4f565b5b9060005260206000200154905092915050565b600080fd5b600080fd5b6000819050919050565b61145381611440565b811461145e57600080fd5b50565b6000813590506114708161144a565b92915050565b60006020828403121561148c5761148b611436565b5b600061149a84828501611461565b91505092915050565b6114ac81611440565b82525050565b600073ffffffffffffffffffffffffffffffffffffffff82169050919050565b60006114dd826114b2565b9050919050565b6114ed816114d2565b82525050565b600081519050919050565b600082825260208201905092915050565b60005b8381101561152d578082015181840152602081019050611512565b60008484015250505050565b6000601f19601f8301169050919050565b6000611555826114f3565b61155f81856114fe565b935061156f81856020860161150f565b61157881611539565b840191505092915050565b7f4e487b7100000000000000000000000000000000000000000000000000000000600052602160045260246000fd5b600281106115c3576115c2611583565b5b50565b60008190506115d4826115b2565b919050565b60006115e4826115c6565b9050919050565b6115f4816115d9565b82525050565b600061010082019050611610600083018b6114a3565b61161d602083018a6114a3565b61162a60408301896114a3565b61163760608301886114e4565b61164460808301876114e4565b81810360a0830152611656818661154a565b905081810360c083015261166a818561154a565b905061167960e08301846115eb565b9998505050505050505050565b61168f816114d2565b811461169a57600080fd5b50565b6000813590506116ac81611686565b92915050565b600080604083850312156116c9576116c8611436565b5b60006116d78582860161169d565b92505060206116e885828601611461565b9150509250929050565b600080fd5b600080fd5b600080fd5b60008083601f840112611717576117166116f2565b5b8235905067ffffffffffffffff811115611734576117336116f7565b5b6020830191508360018202830111156117505761174f6116fc565b5b9250929050565b6000806000604084860312156117705761176f611436565b5b600084013567ffffffffffffffff81111561178e5761178d61143b565b5b61179a86828701611701565b935093505060206117ad86828701611461565b9150509250925092565b6000602082840312156117cd576117cc611436565b5b60006117db8482850161169d565b91505092915050565b60006020820190506117f960008301846114a3565b92915050565b60008060006040848603121561181857611817611436565b5b600061182686828701611461565b935050602084013567ffffffffffffffff8111156118475761184661143b565b5b61185386828701611701565b92509250509250925092565b600060208201905061187460008301846114e4565b92915050565b600081519050919050565b600082825260208201905092915050565b6000819050602082019050919050565b6118af81611440565b82525050565b60006118c183836118a6565b60208301905092915050565b6000602082019050919050565b60006118e58261187a565b6118ef8185611885565b93506118fa83611896565b8060005b8381101561192b57815161191288826118b5565b975061191d836118cd565b9250506001810190506118fe565b5085935050505092915050565b6000602082019050818103600083015261195281846118da565b905092915050565b7f4e487b7100000000000000000000000000000000000000000000000000000000600052602260045260246000fd5b600060028204905060018216806119a157607f821691505b6020821081036119b4576119b361195a565b5b50919050565b7f43616c6c6572206973206e6f74206f776e657200000000000000000000000000600082015250565b60006119f06013836114fe565b91506119fb826119ba565b602082019050919050565b60006020820190508181036000830152611a1f816119e3565b9050919050565b7f4e487b7100000000000000000000000000000000000000000000000000000000600052601160045260246000fd5b6000611a6082611440565b9150611a6b83611440565b9250828203905081811115611a8357611a82611a26565b5b92915050565b6000611a9482611440565b9150611a9f83611440565b9250828201905080821115611ab757611ab6611a26565b5b92915050565b7f6f6e6c792061737369676e656420776f726b65722063616e207375626d69742060008201527f6a6f6220726573756c7400000000000000000000000000000000000000000000602082015250565b6000611b19602a836114fe565b9150611b2482611abd565b604082019050919050565b60006020820190508181036000830152611b4881611b0c565b9050919050565b7f4e487b7100000000000000000000000000000000000000000000000000000000600052603260045260246000fd5b600082905092915050565b7f4e487b7100000000000000000000000000000000000000000000000000000000600052604160045260246000fd5b60008190508160005260206000209050919050565b60006020601f8301049050919050565b600082821b905092915050565b600060088302611c1a7fffffffffffffffffffffffffffffffffffffffffffffffffffffffffffffffff82611bdd565b611c248683611bdd565b95508019841693508086168417925050509392505050565b6000819050919050565b6000611c61611c5c611c5784611440565b611c3c565b611440565b9050919050565b6000819050919050565b611c7b83611c46565b611c8f611c8782611c68565b848454611bea565b825550505050565b600090565b611ca4611c97565b611caf818484611c72565b505050565b5b81811015611cd357611cc8600082611c9c565b600181019050611cb5565b5050565b601f821115611d1857611ce981611bb8565b611cf284611bcd565b81016020851015611d01578190505b611d15611d0d85611bcd565b830182611cb4565b50505b505050565b600082821c905092915050565b6000611d3b60001984600802611d1d565b1980831691505092915050565b6000611d548383611d2a565b9150826002028217905092915050565b611d6e8383611b7e565b67ffffffffffffffff811115611d8757611d86611b89565b5b611d918254611989565b611d9c828285611cd7565b6000601f831160018114611dcb5760008415611db9578287013590505b611dc38582611d48565b865550611e2b565b601f198416611dd986611bb8565b60005b82811015611e0157848901358255600182019150602085019450602081019050611ddc565b86831015611e1e5784890135611e1a601f891682611d2a565b8355505b6001600288020188555050505b50505050505050565b60008154611e4181611989565b611e4b81866114fe565b94506001821660008114611e665760018114611e7c57611eaf565b60ff198316865281151560200286019350611eaf565b611e8585611bb8565b60005b83811015611ea757815481890152600182019150602081019050611e88565b808801955050505b50505092915050565b82818337600083830152505050565b6000611ed383856114fe565b9350611ee0838584611eb8565b611ee983611539565b840190509392505050565b6000608082019050611f0960008301886114a3565b611f1660208301876114a3565b8181036040830152611f288186611e34565b90508181036060830152611f3d818486611ec7565b90509695505050505050565b7f6e6f2065746820696e207468652073656e64696e67206163636f756e7420746f60008201527f2062652077697468726177656400000000000000000000000000000000000000602082015250565b6000611fa5602d836114fe565b9150611fb082611f49565b604082019050919050565b60006020820190508181036000830152611fd481611f98565b9050919050565b7f6e6f7420656e6f7567682065746820746f206265207374616b65640000000000600082015250565b6000612011601b836114fe565b915061201c82611fdb565b602082019050919050565b6000602082019050818103600083015261204081612004565b9050919050565b7f4e6f7420656e6f75676820636f6d7075746174696f6e20666565000000000000600082015250565b600061207d601a836114fe565b915061208882612047565b602082019050919050565b600060208201905081810360008301526120ac81612070565b9050919050565b6000815190506120c281611686565b92915050565b6000602082840312156120de576120dd611436565b5b60006120ec848285016120b3565b91505092915050565b7f496e76616c6964206d6f64656c49640000000000000000000000000000000000600082015250565b600061212b600f836114fe565b9150612136826120f5565b602082019050919050565b6000602082019050818103600083015261215a8161211e565b9050919050565b61216a826114f3565b67ffffffffffffffff81111561218357612182611b89565b5b61218d8254611989565b612198828285611cd7565b600060209050601f8311600181146121cb57600084156121b9578287015190505b6121c38582611d48565b86555061222b565b601f1984166121d986611bb8565b60005b82811015612201578489015182556001820191506020850194506020810190506121dc565b8683101561221e578489015161221a601f891682611d2a565b8355505b6001600288020188555050505b505050505050565b600061223e82611440565b91507fffffffffffffffffffffffffffffffffffffffffffffffffffffffffffffffff82036122705761226f611a26565b5b600182019050919050565b600060608201905061229060008301876114a3565b61229d60208301866114a3565b81810360408301526122b0818486611ec7565b905095945050505050565b7f4e6f20776f726b65722061646465642079657400000000000000000000000000600082015250565b60006122f16013836114fe565b91506122fc826122bb565b602082019050919050565b60006020820190508181036000830152612320816122e4565b9050919050565b7f4e487b7100000000000000000000000000000000000000000000000000000000600052601260045260246000fd5b600061236182611440565b915061236c83611440565b92508261237c5761237b612327565b5b828206905092915050565b7f4e487b7100000000000000000000000000000000000000000000000000000000600052603160045260246000fd5b6000819050919050565b6123d16123cc82611440565b6123b6565b82525050565b60006123e382846123c0565b6020820191508190509291505056fea26469706673582212205871d740d376627a3665f6ba2cc247deb81fa6264bc16c778fe15d5e84bec48564736f6c63430008110033",
  "linkReferences": {},
  "deployedLinkReferences": {}
}